{
  "contractName": "ZombieAttack",
  "abi": [
    {
      "constant": false,
      "inputs": [
        {
          "name": "_zombieId",
          "type": "uint256"
        }
      ],
      "name": "levelUp",
      "outputs": [],
      "payable": true,
      "stateMutability": "payable",
      "type": "function"
    },
    {
      "constant": false,
      "inputs": [
        {
          "name": "_zombieId",
          "type": "uint256"
        },
        {
          "name": "_kittyId",
          "type": "uint256"
        }
      ],
      "name": "feedOnKitty",
      "outputs": [],
      "payable": false,
      "stateMutability": "nonpayable",
      "type": "function"
    },
    {
      "constant": true,
      "inputs": [
        {
          "name": "",
          "type": "uint256"
        }
      ],
      "name": "zombies",
      "outputs": [
        {
          "name": "name",
          "type": "string"
        },
        {
          "name": "dna",
          "type": "uint256"
        },
        {
          "name": "level",
          "type": "uint32"
        },
        {
          "name": "readyTime",
          "type": "uint32"
        },
        {
          "name": "winCount",
          "type": "uint16"
        },
        {
          "name": "lossCount",
          "type": "uint16"
        }
      ],
      "payable": false,
      "stateMutability": "view",
      "type": "function"
    },
    {
      "constant": false,
      "inputs": [],
      "name": "withdraw",
      "outputs": [],
      "payable": false,
      "stateMutability": "nonpayable",
      "type": "function"
    },
    {
      "constant": true,
      "inputs": [
        {
          "name": "_owner",
          "type": "address"
        }
      ],
      "name": "getZombiesByOwner",
      "outputs": [
        {
          "name": "",
          "type": "uint256[]"
        }
      ],
      "payable": false,
      "stateMutability": "view",
      "type": "function"
    },
    {
      "constant": true,
      "inputs": [
        {
          "name": "",
          "type": "uint256"
        }
      ],
      "name": "zombieToOwner",
      "outputs": [
        {
          "name": "",
          "type": "address"
        }
      ],
      "payable": false,
      "stateMutability": "view",
      "type": "function"
    },
    {
      "constant": false,
      "inputs": [
        {
          "name": "_address",
          "type": "address"
        }
      ],
      "name": "setKittyContractAddress",
      "outputs": [],
      "payable": false,
      "stateMutability": "nonpayable",
      "type": "function"
    },
    {
      "constant": false,
      "inputs": [
        {
          "name": "_zombieId",
          "type": "uint256"
        },
        {
          "name": "_newDna",
          "type": "uint256"
        }
      ],
      "name": "changeDna",
      "outputs": [],
      "payable": false,
      "stateMutability": "nonpayable",
      "type": "function"
    },
    {
      "constant": false,
      "inputs": [
        {
          "name": "_name",
          "type": "string"
        }
      ],
      "name": "createRandomZombie",
      "outputs": [],
      "payable": false,
      "stateMutability": "nonpayable",
      "type": "function"
    },
    {
      "constant": true,
      "inputs": [],
      "name": "owner",
      "outputs": [
        {
          "name": "",
          "type": "address"
        }
      ],
      "payable": false,
      "stateMutability": "view",
      "type": "function"
    },
    {
      "constant": false,
      "inputs": [
        {
          "name": "_zombieId",
          "type": "uint256"
        },
        {
          "name": "_newName",
          "type": "string"
        }
      ],
      "name": "changeName",
      "outputs": [],
      "payable": false,
      "stateMutability": "nonpayable",
      "type": "function"
    },
    {
      "constant": false,
      "inputs": [
        {
          "name": "_fee",
          "type": "uint256"
        }
      ],
      "name": "setLevelUpFee",
      "outputs": [],
      "payable": false,
      "stateMutability": "nonpayable",
      "type": "function"
    },
    {
      "constant": false,
      "inputs": [
        {
          "name": "newOwner",
          "type": "address"
        }
      ],
      "name": "transferOwnership",
      "outputs": [],
      "payable": false,
      "stateMutability": "nonpayable",
      "type": "function"
    },
    {
      "anonymous": false,
      "inputs": [
        {
          "indexed": false,
          "name": "zombieId",
          "type": "uint256"
        },
        {
          "indexed": false,
          "name": "name",
          "type": "string"
        },
        {
          "indexed": false,
          "name": "dna",
          "type": "uint256"
        }
      ],
      "name": "NewZombie",
      "type": "event"
    },
    {
      "anonymous": false,
      "inputs": [
        {
          "indexed": true,
          "name": "previousOwner",
          "type": "address"
        },
        {
          "indexed": true,
          "name": "newOwner",
          "type": "address"
        }
      ],
      "name": "OwnershipTransferred",
      "type": "event"
    },
    {
      "constant": false,
      "inputs": [
        {
          "name": "_zombieId",
          "type": "uint256"
        },
        {
          "name": "_targetId",
          "type": "uint256"
        }
      ],
      "name": "attack",
      "outputs": [],
      "payable": false,
      "stateMutability": "nonpayable",
      "type": "function"
    }
  ],
  "bytecode": "0x60806040526010600155600154600a0a6002556201518060035566038d7ea4c6800060085560006009556046600a55336000806101000a81548173ffffffffffffffffffffffffffffffffffffffff021916908373ffffffffffffffffffffffffffffffffffffffff160217905550611b328061007d6000396000f3006080604052600436106100d0576000357c0100000000000000000000000000000000000000000000000000000000900463ffffffff1680630ce90ec2146100d557806317a7f4cc146100f55780632052465e1461012c5780633ccfd60b1461021d5780634412e10414610234578063528b7b8f146102cc5780635f4623f1146103395780635faf28801461037c5780637bff0a01146103b35780638da5cb5b1461041c578063c39cbef114610473578063ccf670f8146104b8578063e1fa7638146104e5578063f2fde38b1461051c575b600080fd5b6100f36004803603810190808035906020019092919050505061055f565b005b34801561010157600080fd5b5061012a60048036038101908080359060200190929190803590602001909291905050506105cb565b005b34801561013857600080fd5b5061015760048036038101908080359060200190929190505050610774565b60405180806020018781526020018663ffffffff1663ffffffff1681526020018563ffffffff1663ffffffff1681526020018461ffff1661ffff1681526020018361ffff1661ffff168152602001828103825288818151815260200191508051906020019080838360005b838110156101dd5780820151818401526020810190506101c2565b50505050905090810190601f16801561020a5780820380516001836020036101000a031916815260200191505b5097505050505050505060405180910390f35b34801561022957600080fd5b50610232610893565b005b34801561024057600080fd5b50610275600480360381019080803573ffffffffffffffffffffffffffffffffffffffff16906020019092919050505061096f565b6040518080602001828103825283818151815260200191508051906020019060200280838360005b838110156102b857808201518184015260208101905061029d565b505050509050019250505060405180910390f35b3480156102d857600080fd5b506102f760048036038101908080359060200190929190505050610aa1565b604051808273ffffffffffffffffffffffffffffffffffffffff1673ffffffffffffffffffffffffffffffffffffffff16815260200191505060405180910390f35b34801561034557600080fd5b5061037a600480360381019080803573ffffffffffffffffffffffffffffffffffffffff169060200190929190505050610ad4565b005b34801561038857600080fd5b506103b16004803603810190808035906020019092919080359060200190929190505050610b73565b005b3480156103bf57600080fd5b5061041a600480360381019080803590602001908201803590602001908080601f0160208091040260200160405190810160405280939291908181526020018383808284378201915050505050509192919290505050610c55565b005b34801561042857600080fd5b50610431610cbd565b604051808273ffffffffffffffffffffffffffffffffffffffff1673ffffffffffffffffffffffffffffffffffffffff16815260200191505060405180910390f35b34801561047f57600080fd5b506104b660048036038101908080359060200190929190803590602001908201803590602001919091929391929390505050610ce2565b005b3480156104c457600080fd5b506104e360048036038101908080359060200190929190505050610dd0565b005b3480156104f157600080fd5b5061051a6004803603810190808035906020019092919080359060200190929190505050610e35565b005b34801561052857600080fd5b5061055d600480360381019080803573ffffffffffffffffffffffffffffffffffffffff1690602001909291905050506110c8565b005b6008543414151561056f57600080fd5b60048181548110151561057e57fe5b9060005260206000209060030201600201600081819054906101000a900463ffffffff168092919060010191906101000a81548163ffffffff021916908363ffffffff1602179055505050565b6000600760009054906101000a900473ffffffffffffffffffffffffffffffffffffffff1673ffffffffffffffffffffffffffffffffffffffff1663e98b7f4d836040518263ffffffff167c01000000000000000000000000000000000000000000000000000000000281526004018082815260200191505061014060405180830381600087803b15801561065f57600080fd5b505af1158015610673573d6000803e3d6000fd5b505050506040513d61014081101561068a57600080fd5b81019080805190602001909291908051906020019092919080519060200190929190805190602001909291908051906020019092919080519060200190929190805190602001909291908051906020019092919080519060200190929190805190602001909291905050509091929394959697985090919293949596975090919293949596509091929394955090919293945090919293509091925090915090508091505061076f83826040805190810160405280600581526020017f6b6974747900000000000000000000000000000000000000000000000000000081525061121d565b505050565b60048181548110151561078357fe5b9060005260206000209060030201600091509050806000018054600181600116156101000203166002900480601f01602080910402602001604051908101604052809291908181526020018280546001816001161561010002031660029004801561082f5780601f106108045761010080835404028352916020019161082f565b820191906000526020600020905b81548152906001019060200180831161081257829003601f168201915b5050505050908060010154908060020160009054906101000a900463ffffffff16908060020160049054906101000a900463ffffffff16908060020160089054906101000a900461ffff169080600201600a9054906101000a900461ffff16905086565b6000809054906101000a900473ffffffffffffffffffffffffffffffffffffffff1673ffffffffffffffffffffffffffffffffffffffff163373ffffffffffffffffffffffffffffffffffffffff161415156108ee57600080fd5b6000809054906101000a900473ffffffffffffffffffffffffffffffffffffffff1673ffffffffffffffffffffffffffffffffffffffff166108fc3073ffffffffffffffffffffffffffffffffffffffff16319081150290604051600060405180830381858888f1935050505015801561096c573d6000803e3d6000fd5b50565b606080600080600660008673ffffffffffffffffffffffffffffffffffffffff1673ffffffffffffffffffffffffffffffffffffffff168152602001908152602001600020546040519080825280602002602001820160405280156109e35781602001602082028038833980820191505090505b50925060009150600090505b600480549050811015610a96578473ffffffffffffffffffffffffffffffffffffffff166005600083815260200190815260200160002060009054906101000a900473ffffffffffffffffffffffffffffffffffffffff1673ffffffffffffffffffffffffffffffffffffffff161415610a8957808383815181101515610a7257fe5b906020019060200201818152505081806001019250505b80806001019150506109ef565b829350505050919050565b60056020528060005260406000206000915054906101000a900473ffffffffffffffffffffffffffffffffffffffff1681565b6000809054906101000a900473ffffffffffffffffffffffffffffffffffffffff1673ffffffffffffffffffffffffffffffffffffffff163373ffffffffffffffffffffffffffffffffffffffff16141515610b2f57600080fd5b80600760006101000a81548173ffffffffffffffffffffffffffffffffffffffff021916908373ffffffffffffffffffffffffffffffffffffffff16021790555050565b60148281600482815481101515610b8657fe5b906000526020600020906003020160020160009054906101000a900463ffffffff1663ffffffff1610151515610bbb57600080fd5b836005600082815260200190815260200160002060009054906101000a900473ffffffffffffffffffffffffffffffffffffffff1673ffffffffffffffffffffffffffffffffffffffff163373ffffffffffffffffffffffffffffffffffffffff16141515610c2957600080fd5b83600486815481101515610c3957fe5b9060005260206000209060030201600101819055505050505050565b600080600660003373ffffffffffffffffffffffffffffffffffffffff1673ffffffffffffffffffffffffffffffffffffffff16815260200190815260200160002054141515610ca457600080fd5b610cad826114ca565b9050610cb982826115b8565b5050565b6000809054906101000a900473ffffffffffffffffffffffffffffffffffffffff1681565b60028381600482815481101515610cf557fe5b906000526020600020906003020160020160009054906101000a900463ffffffff1663ffffffff1610151515610d2a57600080fd5b846005600082815260200190815260200160002060009054906101000a900473ffffffffffffffffffffffffffffffffffffffff1673ffffffffffffffffffffffffffffffffffffffff163373ffffffffffffffffffffffffffffffffffffffff16141515610d9857600080fd5b8484600488815481101515610da957fe5b90600052602060002090600302016000019190610dc79291906119e1565b50505050505050565b6000809054906101000a900473ffffffffffffffffffffffffffffffffffffffff1673ffffffffffffffffffffffffffffffffffffffff163373ffffffffffffffffffffffffffffffffffffffff16141515610e2b57600080fd5b8060088190555050565b6000806000846005600082815260200190815260200160002060009054906101000a900473ffffffffffffffffffffffffffffffffffffffff1673ffffffffffffffffffffffffffffffffffffffff163373ffffffffffffffffffffffffffffffffffffffff16141515610ea857600080fd5b600486815481101515610eb757fe5b90600052602060002090600302019350600485815481101515610ed657fe5b90600052602060002090600302019250610ef0606461188b565b9150600a548211151561102657610f2760018560020160089054906101000a900461ffff1661ffff1661192290919063ffffffff16565b8460020160086101000a81548161ffff021916908361ffff160217905550610f7360018560020160009054906101000a900463ffffffff1663ffffffff1661194890919063ffffffff16565b8460020160006101000a81548163ffffffff021916908363ffffffff160217905550610fbf600184600201600a9054906101000a900461ffff1661ffff1661192290919063ffffffff16565b83600201600a6101000a81548161ffff021916908361ffff1602179055506110218684600101546040805190810160405280600681526020017f7a6f6d626965000000000000000000000000000000000000000000000000000081525061121d565b6110b7565b611050600185600201600a9054906101000a900461ffff1661ffff1661192290919063ffffffff16565b84600201600a6101000a81548161ffff021916908361ffff16021790555061109860018460020160089054906101000a900461ffff1661ffff1661192290919063ffffffff16565b8360020160086101000a81548161ffff021916908361ffff1602179055505b6110c084611972565b505050505050565b6000809054906101000a900473ffffffffffffffffffffffffffffffffffffffff1673ffffffffffffffffffffffffffffffffffffffff163373ffffffffffffffffffffffffffffffffffffffff1614151561112357600080fd5b600073ffffffffffffffffffffffffffffffffffffffff168173ffffffffffffffffffffffffffffffffffffffff161415151561115f57600080fd5b8073ffffffffffffffffffffffffffffffffffffffff166000809054906101000a900473ffffffffffffffffffffffffffffffffffffffff1673ffffffffffffffffffffffffffffffffffffffff167f8be0079c531659141344cd1fd0a4f28419497f9722a3daafe3b4186f6b6457e060405160405180910390a3806000806101000a81548173ffffffffffffffffffffffffffffffffffffffff021916908373ffffffffffffffffffffffffffffffffffffffff16021790555050565b600080846005600082815260200190815260200160002060009054906101000a900473ffffffffffffffffffffffffffffffffffffffff1673ffffffffffffffffffffffffffffffffffffffff163373ffffffffffffffffffffffffffffffffffffffff1614151561128e57600080fd5b60048681548110151561129d57fe5b906000526020600020906003020192506112b68361199c565b15156112c157600080fd5b600254858115156112ce57fe5b0694506002858460010154018115156112e357fe5b04915060405160200180807f6b6974747900000000000000000000000000000000000000000000000000000081525060050190506040516020818303038152906040526040518082805190602001908083835b60208310151561135b5780518252602082019150602081019050602083039250611336565b6001836020036101000a038019825116818451168082178552505050505050905001915050604051809103902060001916846040516020018082805190602001908083835b6020831015156113c557805182526020820191506020810190506020830392506113a0565b6001836020036101000a0380198251168184511680821785525050505050509050019150506040516020818303038152906040526040518082805190602001908083835b60208310151561142e5780518252602082019150602081019050602083039250611409565b6001836020036101000a038019825116818451168082178552505050505050905001915050604051809103902060001916141561147a57606360648381151561147357fe5b0683030191505b6114b96040805190810160405280600681526020017f4e6f4e616d650000000000000000000000000000000000000000000000000000815250836115b8565b6114c283611972565b505050505050565b600080826040516020018082805190602001908083835b60208310151561150657805182526020820191506020810190506020830392506114e1565b6001836020036101000a0380198251168184511680821785525050505050509050019150506040516020818303038152906040526040518082805190602001908083835b60208310151561156f578051825260208201915060208101905060208303925061154a565b6001836020036101000a0380198251168184511680821785525050505050509050019150506040518091039020600190049050600254818115156115af57fe5b06915050919050565b60006001600460c060405190810160405280868152602001858152602001600163ffffffff168152602001600354420163ffffffff168152602001600061ffff168152602001600061ffff1681525090806001815401808255809150509060018203906000526020600020906003020160009091929091909150600082015181600001908051906020019061164e929190611a61565b506020820151816001015560408201518160020160006101000a81548163ffffffff021916908363ffffffff16021790555060608201518160020160046101000a81548163ffffffff021916908363ffffffff16021790555060808201518160020160086101000a81548161ffff021916908361ffff16021790555060a082015181600201600a6101000a81548161ffff021916908361ffff1602179055505050039050336005600083815260200190815260200160002060006101000a81548173ffffffffffffffffffffffffffffffffffffffff021916908373ffffffffffffffffffffffffffffffffffffffff1602179055506117976001600660003373ffffffffffffffffffffffffffffffffffffffff1673ffffffffffffffffffffffffffffffffffffffff168152602001908152602001600020546119c390919063ffffffff16565b600660003373ffffffffffffffffffffffffffffffffffffffff1673ffffffffffffffffffffffffffffffffffffffff168152602001908152602001600020819055507f88f026aacbbecc90c18411df4b1185fd8d9be2470f1962f192bf84a27d0704b78184846040518084815260200180602001838152602001828103825284818151815260200191508051906020019080838360005b8381101561184a57808201518184015260208101905061182f565b50505050905090810190601f1680156118775780820380516001836020036101000a031916815260200191505b5094505050505060405180910390a1505050565b60006118a360016009546119c390919063ffffffff16565b600981905550814233600954604051808481526020018373ffffffffffffffffffffffffffffffffffffffff1673ffffffffffffffffffffffffffffffffffffffff166c01000000000000000000000000028152601401828152602001935050505060405180910390206001900481151561191a57fe5b069050919050565b60008082840190508361ffff168161ffff161015151561193e57fe5b8091505092915050565b60008082840190508363ffffffff168163ffffffff161015151561196857fe5b8091505092915050565b60035442018160020160046101000a81548163ffffffff021916908363ffffffff16021790555050565b6000428260020160049054906101000a900463ffffffff1663ffffffff1611159050919050565b60008082840190508381101515156119d757fe5b8091505092915050565b828054600181600116156101000203166002900490600052602060002090601f016020900481019282601f10611a2257803560ff1916838001178555611a50565b82800160010185558215611a50579182015b82811115611a4f578235825591602001919060010190611a34565b5b509050611a5d9190611ae1565b5090565b828054600181600116156101000203166002900490600052602060002090601f016020900481019282601f10611aa257805160ff1916838001178555611ad0565b82800160010185558215611ad0579182015b82811115611acf578251825591602001919060010190611ab4565b5b509050611add9190611ae1565b5090565b611b0391905b80821115611aff576000816000905550600101611ae7565b5090565b905600a165627a7a72305820a791adc3a9380d230c7e0a26054913fffed65c4367ab09605d51f83a2a4f442c0029",
  "source": "pragma solidity ^0.4.25;\nimport \"./ZombieHelper.sol\";\n\ncontract ZombieAttack is ZombieHelper {\n    uint randNonce = 0;\n    uint attackVictoryProbability = 70;\n\n    function randMod(uint _modulus) internal returns (uint) {\n        randNonce = randNonce.add(1);\n        return uint(keccak256(now, msg.sender, randNonce)) % _modulus;\n    }\n\n    function attack(uint _zombieId, uint _targetId) external onlyOwnerOf(_zombieId) {\n        Zombie storage myZombie = zombies[_zombieId];\n        Zombie storage enemyZombie = zombies[_targetId];\n        uint rand = randMod(100);\n        if (rand <= attackVictoryProbability) {\n            myZombie.winCount = myZombie.winCount.add(1);\n            myZombie.level = myZombie.level.add(1);\n            enemyZombie.lossCount = enemyZombie.lossCount.add(1);\n            feedAndMultiply(_zombieId, enemyZombie.dna, \"zombie\");\n        } else {\n            myZombie.lossCount = myZombie.lossCount.add(1);\n            enemyZombie.winCount = enemyZombie.winCount.add(1);\n        }\n        _triggerCooldown(myZombie);\n    }\n}",
  "sourcePath": "E:\\Working\\Solidity\\CryptoZombies\\contracts\\ZombieAttack.sol",
  "compiler": {
    "name": "solc",
    "version": "0.4.25+commit.59dbf8f1.Emscripten.clang"
  },
  "schemaVersion": "3.4.1",
  "updatedAt": "2021-05-31T18:06:48.822Z",
  "devdoc": {
    "methods": {
      "transferOwnership(address)": {
        "details": "Allows the current owner to transfer control of the contract to a newOwner.",
        "params": {
          "newOwner": "The address to transfer ownership to."
        }
      }
    }
  },
  "userdoc": {
    "methods": {}
  }
}